{
  "contractName": "Ethervote",
  "abi": [
    {
      "constant": true,
      "inputs": [],
      "name": "rightSharePriceRateOfIncrease",
      "outputs": [
        {
          "name": "",
          "type": "uint256"
        }
      ],
      "payable": false,
      "stateMutability": "view",
      "type": "function"
    },
    {
      "constant": false,
      "inputs": [],
      "name": "retrieveExcessEther",
      "outputs": [],
      "payable": false,
      "stateMutability": "nonpayable",
      "type": "function"
    },
    {
      "constant": true,
      "inputs": [],
      "name": "rightSharePrice",
      "outputs": [
        {
          "name": "",
          "type": "uint256"
        }
      ],
      "payable": false,
      "stateMutability": "view",
      "type": "function"
    },
    {
      "constant": false,
      "inputs": [
        {
          "name": "bettingLeft",
          "type": "bool"
        }
      ],
      "name": "bet",
      "outputs": [],
      "payable": true,
      "stateMutability": "payable",
      "type": "function"
    },
    {
      "constant": true,
      "inputs": [],
      "name": "viewBlockNumber",
      "outputs": [
        {
          "name": "",
          "type": "uint256"
        }
      ],
      "payable": false,
      "stateMutability": "view",
      "type": "function"
    },
    {
      "constant": true,
      "inputs": [],
      "name": "thePot",
      "outputs": [
        {
          "name": "",
          "type": "uint256"
        }
      ],
      "payable": false,
      "stateMutability": "view",
      "type": "function"
    },
    {
      "constant": true,
      "inputs": [],
      "name": "betIsSettled",
      "outputs": [
        {
          "name": "",
          "type": "bool"
        }
      ],
      "payable": false,
      "stateMutability": "view",
      "type": "function"
    },
    {
      "constant": false,
      "inputs": [],
      "name": "settleBet",
      "outputs": [],
      "payable": false,
      "stateMutability": "nonpayable",
      "type": "function"
    },
    {
      "constant": true,
      "inputs": [],
      "name": "leftSharePriceRateOfIncrease",
      "outputs": [
        {
          "name": "",
          "type": "uint256"
        }
      ],
      "payable": false,
      "stateMutability": "view",
      "type": "function"
    },
    {
      "constant": true,
      "inputs": [],
      "name": "rightVotes",
      "outputs": [
        {
          "name": "",
          "type": "uint256"
        }
      ],
      "payable": false,
      "stateMutability": "view",
      "type": "function"
    },
    {
      "constant": true,
      "inputs": [],
      "name": "expiryBlock",
      "outputs": [
        {
          "name": "",
          "type": "uint256"
        }
      ],
      "payable": false,
      "stateMutability": "view",
      "type": "function"
    },
    {
      "constant": true,
      "inputs": [],
      "name": "viewMyExcessEther",
      "outputs": [
        {
          "name": "",
          "type": "uint256"
        }
      ],
      "payable": false,
      "stateMutability": "view",
      "type": "function"
    },
    {
      "constant": true,
      "inputs": [],
      "name": "leftSharePrice",
      "outputs": [
        {
          "name": "",
          "type": "uint256"
        }
      ],
      "payable": false,
      "stateMutability": "view",
      "type": "function"
    },
    {
      "constant": true,
      "inputs": [],
      "name": "leftVotes",
      "outputs": [
        {
          "name": "",
          "type": "uint256"
        }
      ],
      "payable": false,
      "stateMutability": "view",
      "type": "function"
    },
    {
      "constant": true,
      "inputs": [
        {
          "name": "left",
          "type": "bool"
        }
      ],
      "name": "viewMyShares",
      "outputs": [
        {
          "name": "",
          "type": "uint256"
        }
      ],
      "payable": false,
      "stateMutability": "view",
      "type": "function"
    },
    {
      "inputs": [],
      "payable": false,
      "stateMutability": "nonpayable",
      "type": "constructor"
    }
  ],
  "bytecode": "0x606060405273a03f27587883135da9565e7efb523e1657a47a07600160006101000a81548173ffffffffffffffffffffffffffffffffffffffff021916908373ffffffffffffffffffffffffffffffffffffffff160217905550662386f26fc10000600455662386f26fc1000060055566038d7ea4c6800060065566038d7ea4c68000600755600060085560006009556000600a556000600b60006101000a81548160ff02191690831515021790555034156100ba57600080fd5b6104b04301600381905550336000806101000a81548173ffffffffffffffffffffffffffffffffffffffff021916908373ffffffffffffffffffffffffffffffffffffffff1602179055506116f8806101146000396000f3006060604052600436106100db576000357c0100000000000000000000000000000000000000000000000000000000900463ffffffff1680631290a2b4146100e057806344c20e6f146101095780634dd123291461011e578063523afb0d146101475780636901ae581461016157806380b202081461018a5780638c96e34b146101b35780638e4bf820146101e0578063ba95d63a146101f5578063baa24fce1461021e578063bf62427314610247578063bffc1fef14610270578063c5ac8a4d14610299578063cb1faac1146102c2578063e16c8d4b146102eb575b600080fd5b34156100eb57600080fd5b6100f3610324565b6040518082815260200191505060405180910390f35b341561011457600080fd5b61011c61032a565b005b341561012957600080fd5b61013161043f565b6040518082815260200191505060405180910390f35b61015f60048080351515906020019091905050610445565b005b341561016c57600080fd5b610174610903565b6040518082815260200191505060405180910390f35b341561019557600080fd5b61019d61090b565b6040518082815260200191505060405180910390f35b34156101be57600080fd5b6101c6610911565b604051808215151515815260200191505060405180910390f35b34156101eb57600080fd5b6101f3610924565b005b341561020057600080fd5b610208611576565b6040518082815260200191505060405180910390f35b341561022957600080fd5b61023161157c565b6040518082815260200191505060405180910390f35b341561025257600080fd5b61025a611582565b6040518082815260200191505060405180910390f35b341561027b57600080fd5b610283611588565b6040518082815260200191505060405180910390f35b34156102a457600080fd5b6102ac6115d2565b6040518082815260200191505060405180910390f35b34156102cd57600080fd5b6102d56115d8565b6040518082815260200191505060405180910390f35b34156102f657600080fd5b61030e600480803515159060200190919050506115de565b6040518082815260200191505060405180910390f35b60075481565b6000600c60003373ffffffffffffffffffffffffffffffffffffffff1673ffffffffffffffffffffffffffffffffffffffff1681526020019081526020016000206002015411151561037857fe5b3373ffffffffffffffffffffffffffffffffffffffff166108fc600c60003373ffffffffffffffffffffffffffffffffffffffff1673ffffffffffffffffffffffffffffffffffffffff168152602001908152602001600020600201549081150290604051600060405180830381858888f193505050501561043d576000600c60003373ffffffffffffffffffffffffffffffffffffffff1673ffffffffffffffffffffffffffffffffffffffff168152602001908152602001600020600201819055505b565b60055481565b60006003544310151561045757600080fd5b600c60003373ffffffffffffffffffffffffffffffffffffffff1673ffffffffffffffffffffffffffffffffffffffff16815260200190815260200160002060030160009054906101000a900460ff16151561056c57600280548060010182816104c1919061167b565b9160005260206000209001600033909190916101000a81548173ffffffffffffffffffffffffffffffffffffffff021916908373ffffffffffffffffffffffffffffffffffffffff160217905550506001600c60003373ffffffffffffffffffffffffffffffffffffffff1673ffffffffffffffffffffffffffffffffffffffff16815260200190815260200160002060030160006101000a81548160ff0219169083151502179055505b349050811561071b57600454811015151561058657600080fd5b5b600454811015156106bc57600c60003373ffffffffffffffffffffffffffffffffffffffff1673ffffffffffffffffffffffffffffffffffffffff16815260200190815260200160002060000160008154809291906001019190505550600860008154809291906001019190505550600454600a60008282540192505081905550600454810390506000600f60085481151561061f57fe5b0614156106b757600654600460008282540192505081905550602d6008541115156106605766038d7ea4c680006006600082825401925050819055506106b6565b602d60085411156106b55766038d7ea4c6800060065411156106985766038d7ea4c680006006600082825403925050819055506106b4565b66038d7ea4c680006006541115156106b35760006006819055505b5b5b5b5b610587565b60008111156107165780600c60003373ffffffffffffffffffffffffffffffffffffffff1673ffffffffffffffffffffffffffffffffffffffff168152602001908152602001600020600201600082825401925050819055505b6108ff565b600554811015151561072c57600080fd5b5b6005548110151561086257600c60003373ffffffffffffffffffffffffffffffffffffffff1673ffffffffffffffffffffffffffffffffffffffff16815260200190815260200160002060010160008154809291906001019190505550600960008154809291906001019190505550600554600a60008282540192505081905550600554810390506000600f6009548115156107c557fe5b06141561085d57600754600560008282540192505081905550602d6009541115156108065766038d7ea4c6800060076000828254019250508190555061085c565b602d600954111561085b5766038d7ea4c68000600754111561083e5766038d7ea4c6800060076000828254039250508190555061085a565b66038d7ea4c680006007541115156108595760006007819055505b5b5b5b5b61072d565b60008111156108fe57600015153373ffffffffffffffffffffffffffffffffffffffff166108fc839081150290604051600060405180830381858888f19350505050151514156108fd5780600c60003373ffffffffffffffffffffffffffffffffffffffff1673ffffffffffffffffffffffffffffffffffffffff168152602001908152602001600020600201600082825401925050819055505b5b5b5050565b600043905090565b600a5481565b600b60009054906101000a900460ff1681565b6000806000806000806000600354431015151561094057600080fd5b60001515600b60009054906101000a900460ff16151514151561096257600080fd5b6003600a5402965060148781151561097657fe5b04965060001515600160009054906101000a900473ffffffffffffffffffffffffffffffffffffffff1673ffffffffffffffffffffffffffffffffffffffff166108fc899081150290604051600060405180830381858888f1935050505015151415610a465786600c6000600160009054906101000a900473ffffffffffffffffffffffffffffffffffffffff1673ffffffffffffffffffffffffffffffffffffffff1673ffffffffffffffffffffffffffffffffffffffff168152602001908152602001600020600201819055505b6011600a54029650601487811515610a5a57fe5b0496506009546008541115610d1c5760085487811515610a7657fe5b049650600095505b600280549050861015610d17576000600c6000600289815481101515610aa057fe5b906000526020600020900160009054906101000a900473ffffffffffffffffffffffffffffffffffffffff1673ffffffffffffffffffffffffffffffffffffffff1673ffffffffffffffffffffffffffffffffffffffff168152602001908152602001600020600001541115610d0a5760001515600287815481101515610b2357fe5b906000526020600020900160009054906101000a900473ffffffffffffffffffffffffffffffffffffffff1673ffffffffffffffffffffffffffffffffffffffff166108fc89600c600060028c815481101515610b7c57fe5b906000526020600020900160009054906101000a900473ffffffffffffffffffffffffffffffffffffffff1673ffffffffffffffffffffffffffffffffffffffff1673ffffffffffffffffffffffffffffffffffffffff16815260200190815260200160002060000154029081150290604051600060405180830381858888f1935050505015151415610d095786600c6000600289815481101515610c1d57fe5b906000526020600020900160009054906101000a900473ffffffffffffffffffffffffffffffffffffffff1673ffffffffffffffffffffffffffffffffffffffff1673ffffffffffffffffffffffffffffffffffffffff1681526020019081526020016000206000015402600c6000600289815481101515610c9b57fe5b906000526020600020900160009054906101000a900473ffffffffffffffffffffffffffffffffffffffff1673ffffffffffffffffffffffffffffffffffffffff1673ffffffffffffffffffffffffffffffffffffffff168152602001908152602001600020600201819055505b5b8580600101965050610a7e565b611552565b6008546009541115610fdb5760095487811515610d3557fe5b049650600094505b600280549050851015610fd6576000600c6000600288815481101515610d5f57fe5b906000526020600020900160009054906101000a900473ffffffffffffffffffffffffffffffffffffffff1673ffffffffffffffffffffffffffffffffffffffff1673ffffffffffffffffffffffffffffffffffffffff168152602001908152602001600020600101541115610fc95760001515600286815481101515610de257fe5b906000526020600020900160009054906101000a900473ffffffffffffffffffffffffffffffffffffffff1673ffffffffffffffffffffffffffffffffffffffff166108fc89600c600060028b815481101515610e3b57fe5b906000526020600020900160009054906101000a900473ffffffffffffffffffffffffffffffffffffffff1673ffffffffffffffffffffffffffffffffffffffff1673ffffffffffffffffffffffffffffffffffffffff16815260200190815260200160002060010154029081150290604051600060405180830381858888f1935050505015151415610fc85786600c6000600288815481101515610edc57fe5b906000526020600020900160009054906101000a900473ffffffffffffffffffffffffffffffffffffffff1673ffffffffffffffffffffffffffffffffffffffff1673ffffffffffffffffffffffffffffffffffffffff1681526020019081526020016000206001015402600c6000600288815481101515610f5a57fe5b906000526020600020900160009054906101000a900473ffffffffffffffffffffffffffffffffffffffff1673ffffffffffffffffffffffffffffffffffffffff1673ffffffffffffffffffffffffffffffffffffffff168152602001908152602001600020600201819055505b5b8480600101955050610d3d565b611551565b600854600954141561155057600260095488811515610ff657fe5b0481151561100057fe5b049350600092505b6002805490508310156112a1576000600c600060028681548110151561102a57fe5b906000526020600020900160009054906101000a900473ffffffffffffffffffffffffffffffffffffffff1673ffffffffffffffffffffffffffffffffffffffff1673ffffffffffffffffffffffffffffffffffffffff16815260200190815260200160002060010154111561129457600015156002848154811015156110ad57fe5b906000526020600020900160009054906101000a900473ffffffffffffffffffffffffffffffffffffffff1673ffffffffffffffffffffffffffffffffffffffff166108fc86600c600060028981548110151561110657fe5b906000526020600020900160009054906101000a900473ffffffffffffffffffffffffffffffffffffffff1673ffffffffffffffffffffffffffffffffffffffff1673ffffffffffffffffffffffffffffffffffffffff16815260200190815260200160002060010154029081150290604051600060405180830381858888f19350505050151514156112935783600c60006002868154811015156111a757fe5b906000526020600020900160009054906101000a900473ffffffffffffffffffffffffffffffffffffffff1673ffffffffffffffffffffffffffffffffffffffff1673ffffffffffffffffffffffffffffffffffffffff1681526020019081526020016000206001015402600c600060028681548110151561122557fe5b906000526020600020900160009054906101000a900473ffffffffffffffffffffffffffffffffffffffff1673ffffffffffffffffffffffffffffffffffffffff1673ffffffffffffffffffffffffffffffffffffffff168152602001908152602001600020600201819055505b5b8280600101935050611008565b600854878115156112ae57fe5b049150600090505b60028054905081101561154f576000600c60006002848154811015156112d857fe5b906000526020600020900160009054906101000a900473ffffffffffffffffffffffffffffffffffffffff1673ffffffffffffffffffffffffffffffffffffffff1673ffffffffffffffffffffffffffffffffffffffff168152602001908152602001600020600001541115611542576000151560028281548110151561135b57fe5b906000526020600020900160009054906101000a900473ffffffffffffffffffffffffffffffffffffffff1673ffffffffffffffffffffffffffffffffffffffff166108fc84600c60006002878154811015156113b457fe5b906000526020600020900160009054906101000a900473ffffffffffffffffffffffffffffffffffffffff1673ffffffffffffffffffffffffffffffffffffffff1673ffffffffffffffffffffffffffffffffffffffff16815260200190815260200160002060000154029081150290604051600060405180830381858888f19350505050151514156115415781600c600060028481548110151561145557fe5b906000526020600020900160009054906101000a900473ffffffffffffffffffffffffffffffffffffffff1673ffffffffffffffffffffffffffffffffffffffff1673ffffffffffffffffffffffffffffffffffffffff1681526020019081526020016000206000015402600c60006002848154811015156114d357fe5b906000526020600020900160009054906101000a900473ffffffffffffffffffffffffffffffffffffffff1673ffffffffffffffffffffffffffffffffffffffff1673ffffffffffffffffffffffffffffffffffffffff168152602001908152602001600020600201819055505b5b80806001019150506112b6565b5b5b5b6001600b60006101000a81548160ff02191690831515021790555050505050505050565b60065481565b60095481565b60035481565b6000600c60003373ffffffffffffffffffffffffffffffffffffffff1673ffffffffffffffffffffffffffffffffffffffff16815260200190815260200160002060020154905090565b60045481565b60085481565b6000811561163057600c60003373ffffffffffffffffffffffffffffffffffffffff1673ffffffffffffffffffffffffffffffffffffffff168152602001908152602001600020600001549050611676565b600c60003373ffffffffffffffffffffffffffffffffffffffff1673ffffffffffffffffffffffffffffffffffffffff1681526020019081526020016000206001015490505b919050565b8154818355818115116116a2578183600052602060002091820191016116a191906116a7565b5b505050565b6116c991905b808211156116c55760008160009055506001016116ad565b5090565b905600a165627a7a72305820be6bc13338697fef2da221eeb6e0bfe22440e0d27f334825f1bd5a12c343d85e0029",
  "source": "pragma solidity ^0.4.11;\r\n\r\ncontract Ethervote {\r\n    \r\n    address owner;\r\n    \r\n    address fOwnerOne = 0xa03F27587883135DA9565e7EfB523e1657A47a07;\r\n    \r\n    address[] playerAddresses;\r\n    \r\n    uint public expiryBlock;\r\n    \r\n    uint public leftSharePrice = 10 finney;\r\n    uint public rightSharePrice = 10 finney;\r\n    \r\n    uint public leftSharePriceRateOfIncrease = 1 finney;\r\n    uint public rightSharePriceRateOfIncrease = 1 finney;\r\n    \r\n    uint public leftVotes = 0;\r\n    uint public rightVotes = 0;\r\n    \r\n    uint public thePot = 0 wei;\r\n    \r\n    bool public betIsSettled = false;\r\n\r\n    struct Player {\r\n        uint leftShares;\r\n        uint rightShares;\r\n        uint excessEther;\r\n        bool hasBetBefore;\r\n    }\r\n    \r\n    mapping(address => Player) players;\r\n    \r\n    modifier isOwner {\r\n       if (msg.sender != owner) revert();\r\n        _;\r\n    }\r\n    \r\n    \r\n    \r\n    function Ethervote() public {\r\n        expiryBlock = block.number + 1200;\r\n        owner = msg.sender;\r\n    }\r\n    \r\n    function bet(bool bettingLeft) public payable {\r\n        \r\n        require(block.number < expiryBlock);\r\n        \r\n        if(!players[msg.sender].hasBetBefore){\r\n            playerAddresses.push(msg.sender);\r\n            players[msg.sender].hasBetBefore = true;\r\n        }\r\n            \r\n            uint amountSent = msg.value;\r\n            \r\n            if(bettingLeft){\r\n                require(amountSent >= leftSharePrice);\r\n                \r\n                while(amountSent >= leftSharePrice){\r\n                    players[msg.sender].leftShares++;\r\n                    leftVotes++;\r\n                    thePot += leftSharePrice;\r\n                    amountSent -= leftSharePrice;\r\n                    \r\n                    if((leftVotes % 15) == 0){//if the number of left votes is a multiple of 15\r\n                        leftSharePrice += leftSharePriceRateOfIncrease;\r\n                        if(leftVotes <= 45){//increase the rate at first, then decrease it to zero.\r\n                            leftSharePriceRateOfIncrease += 1 finney;\r\n                        }else if(leftVotes > 45){\r\n                            if(leftSharePriceRateOfIncrease > 1 finney){\r\n                                leftSharePriceRateOfIncrease -= 1 finney;\r\n                            }else if(leftSharePriceRateOfIncrease <= 1 finney){\r\n                                leftSharePriceRateOfIncrease = 0 finney;\r\n                            }\r\n                        }\r\n                    }\r\n                    \r\n                }\r\n                if(amountSent > 0){\r\n                    players[msg.sender].excessEther += amountSent;\r\n                }\r\n                \r\n            }\r\n            else{//betting for the right option\r\n                require(amountSent >= rightSharePrice);\r\n                \r\n                while(amountSent >= rightSharePrice){\r\n                    players[msg.sender].rightShares++;\r\n                    rightVotes++;\r\n                    thePot += rightSharePrice;\r\n                    amountSent -= rightSharePrice;\r\n                    \r\n                    if((rightVotes % 15) == 0){//if the number of right votes is a multiple of 15\r\n                        rightSharePrice += rightSharePriceRateOfIncrease;\r\n                        if(rightVotes <= 45){//increase the rate at first, then decrease it to zero.\r\n                            rightSharePriceRateOfIncrease += 1 finney;\r\n                        }else if(rightVotes > 45){\r\n                            if(rightSharePriceRateOfIncrease > 1 finney){\r\n                                rightSharePriceRateOfIncrease -= 1 finney;\r\n                            }else if(rightSharePriceRateOfIncrease <= 1 finney){\r\n                                rightSharePriceRateOfIncrease = 0 finney;\r\n                            }\r\n                        }\r\n                    }\r\n                    \r\n                }\r\n                if(amountSent > 0){\r\n                    if(msg.sender.send(amountSent) == false)players[msg.sender].excessEther += amountSent;\r\n                }\r\n            }\r\n    }\r\n    \r\n    \r\n    function settleBet() public {\r\n        require(block.number >= expiryBlock);\r\n        require(betIsSettled == false);\r\n\r\n        uint winReward = thePot * 3;\r\n        winReward = winReward / 20;\r\n        if(fOwnerOne.send(winReward) == false) players[fOwnerOne].excessEther = winReward;\r\n        winReward = thePot * 17;\r\n        winReward = winReward / 20;\r\n        \r\n        if(leftVotes > rightVotes){\r\n            winReward = winReward / leftVotes;\r\n            for(uint i=0;i<playerAddresses.length;i++){\r\n                if(players[playerAddresses[i]].leftShares > 0){\r\n                    if(playerAddresses[i].send(players[playerAddresses[i]].leftShares * winReward) == false){\r\n                        //if the send fails\r\n                        players[playerAddresses[i]].excessEther = players[playerAddresses[i]].leftShares * winReward;\r\n                    }\r\n                }\r\n            }\r\n        }else if(rightVotes > leftVotes){\r\n            winReward = winReward / rightVotes;\r\n            for(uint u=0;u<playerAddresses.length;u++){\r\n                if(players[playerAddresses[u]].rightShares > 0){\r\n                    if(playerAddresses[u].send(players[playerAddresses[u]].rightShares * winReward) == false){\r\n                        //if the send fails\r\n                        players[playerAddresses[u]].excessEther = players[playerAddresses[u]].rightShares * winReward;\r\n                    }\r\n                }\r\n            }\r\n        }else if(rightVotes == leftVotes){//split it in a tie\r\n            uint rightWinReward = (winReward / rightVotes) / 2;\r\n            for(uint q=0;q<playerAddresses.length;q++){\r\n                if(players[playerAddresses[q]].rightShares > 0){\r\n                    if(playerAddresses[q].send(players[playerAddresses[q]].rightShares * rightWinReward) == false){\r\n                        //if the send fails\r\n                        players[playerAddresses[q]].excessEther = players[playerAddresses[q]].rightShares * rightWinReward;\r\n                    }\r\n                }\r\n            }\r\n\r\n            uint leftWinReward = winReward / leftVotes;\r\n            for(uint l=0;l<playerAddresses.length;l++){\r\n                if(players[playerAddresses[l]].leftShares > 0){\r\n                    if(playerAddresses[l].send(players[playerAddresses[l]].leftShares * leftWinReward) == false){\r\n                        //if the send fails\r\n                        players[playerAddresses[l]].excessEther = players[playerAddresses[l]].leftShares * leftWinReward;\r\n                    }\r\n                }\r\n            }\r\n\r\n        }\r\n\r\n        betIsSettled = true;\r\n    }\r\n    \r\n    \r\n    function retrieveExcessEther() public {\r\n        assert(players[msg.sender].excessEther > 0);\r\n        if(msg.sender.send(players[msg.sender].excessEther)){\r\n            players[msg.sender].excessEther = 0;\r\n        }\r\n    }\r\n    \r\n    function viewMyExcessEther() public view returns(uint){\r\n        return players[msg.sender].excessEther;\r\n    }\r\n    \r\n    function viewBlockNumber() public view returns(uint){\r\n        return block.number;\r\n    }\r\n    \r\n    function viewMyShares(bool left) public view returns(uint){\r\n        if(left)return players[msg.sender].leftShares;\r\n        return players[msg.sender].rightShares;\r\n    }\r\n}",
  "sourcePath": "C:\\wamp64\\www\\Ethervote\\contracts\\Ethervote.sol",
  "compiler": {
    "name": "solc",
    "version": "0.4.18+commit.9cf6e910.Emscripten.clang"
  },
  "schemaVersion": "1.0.1",
  "updatedAt": "2018-05-02T15:49:07.596Z"
}