{
  "contractName": "Ethervote",
  "abi": [
    {
      "constant": true,
      "inputs": [],
      "name": "rightSharePriceRateOfIncrease",
      "outputs": [
        {
          "name": "",
          "type": "uint256"
        }
      ],
      "payable": false,
      "stateMutability": "view",
      "type": "function"
    },
    {
      "constant": false,
      "inputs": [],
      "name": "retrieveExcessEther",
      "outputs": [],
      "payable": false,
      "stateMutability": "nonpayable",
      "type": "function"
    },
    {
      "constant": true,
      "inputs": [],
      "name": "rightSharePrice",
      "outputs": [
        {
          "name": "",
          "type": "uint256"
        }
      ],
      "payable": false,
      "stateMutability": "view",
      "type": "function"
    },
    {
      "constant": false,
      "inputs": [
        {
          "name": "bettingLeft",
          "type": "bool"
        }
      ],
      "name": "bet",
      "outputs": [],
      "payable": true,
      "stateMutability": "payable",
      "type": "function"
    },
    {
      "constant": true,
      "inputs": [],
      "name": "viewBlockNumber",
      "outputs": [
        {
          "name": "",
          "type": "uint256"
        }
      ],
      "payable": false,
      "stateMutability": "view",
      "type": "function"
    },
    {
      "constant": true,
      "inputs": [],
      "name": "thePot",
      "outputs": [
        {
          "name": "",
          "type": "uint256"
        }
      ],
      "payable": false,
      "stateMutability": "view",
      "type": "function"
    },
    {
      "constant": false,
      "inputs": [],
      "name": "settleBet",
      "outputs": [],
      "payable": false,
      "stateMutability": "nonpayable",
      "type": "function"
    },
    {
      "constant": true,
      "inputs": [],
      "name": "leftSharePriceRateOfIncrease",
      "outputs": [
        {
          "name": "",
          "type": "uint256"
        }
      ],
      "payable": false,
      "stateMutability": "view",
      "type": "function"
    },
    {
      "constant": true,
      "inputs": [],
      "name": "rightVotes",
      "outputs": [
        {
          "name": "",
          "type": "uint256"
        }
      ],
      "payable": false,
      "stateMutability": "view",
      "type": "function"
    },
    {
      "constant": true,
      "inputs": [],
      "name": "viewMyExcessEther",
      "outputs": [
        {
          "name": "",
          "type": "uint256"
        }
      ],
      "payable": false,
      "stateMutability": "view",
      "type": "function"
    },
    {
      "constant": true,
      "inputs": [],
      "name": "leftSharePrice",
      "outputs": [
        {
          "name": "",
          "type": "uint256"
        }
      ],
      "payable": false,
      "stateMutability": "view",
      "type": "function"
    },
    {
      "constant": true,
      "inputs": [],
      "name": "leftVotes",
      "outputs": [
        {
          "name": "",
          "type": "uint256"
        }
      ],
      "payable": false,
      "stateMutability": "view",
      "type": "function"
    },
    {
      "constant": true,
      "inputs": [
        {
          "name": "left",
          "type": "bool"
        }
      ],
      "name": "viewMyShares",
      "outputs": [
        {
          "name": "",
          "type": "uint256"
        }
      ],
      "payable": false,
      "stateMutability": "view",
      "type": "function"
    },
    {
      "inputs": [],
      "payable": false,
      "stateMutability": "nonpayable",
      "type": "constructor"
    }
  ],
  "bytecode": "0x6060604052662386f26fc10000600355662386f26fc1000060045566038d7ea4c6800060055566038d7ea4c68000600655600060075560006008556000600955341561004a57600080fd5b60964301600281905550336000806101000a81548173ffffffffffffffffffffffffffffffffffffffff021916908373ffffffffffffffffffffffffffffffffffffffff16021790555061110b806100a36000396000f3006060604052600436106100c5576000357c0100000000000000000000000000000000000000000000000000000000900463ffffffff1680631290a2b4146100ca57806344c20e6f146100f35780634dd1232914610108578063523afb0d146101315780636901ae581461014b57806380b20208146101745780638e4bf8201461019d578063ba95d63a146101b2578063baa24fce146101db578063bffc1fef14610204578063c5ac8a4d1461022d578063cb1faac114610256578063e16c8d4b1461027f575b600080fd5b34156100d557600080fd5b6100dd6102b8565b6040518082815260200191505060405180910390f35b34156100fe57600080fd5b6101066102be565b005b341561011357600080fd5b61011b6103d3565b6040518082815260200191505060405180910390f35b610149600480803515159060200190919050506103d9565b005b341561015657600080fd5b61015e610897565b6040518082815260200191505060405180910390f35b341561017f57600080fd5b61018761089f565b6040518082815260200191505060405180910390f35b34156101a857600080fd5b6101b06108a5565b005b34156101bd57600080fd5b6101c5610f8f565b6040518082815260200191505060405180910390f35b34156101e657600080fd5b6101ee610f95565b6040518082815260200191505060405180910390f35b341561020f57600080fd5b610217610f9b565b6040518082815260200191505060405180910390f35b341561023857600080fd5b610240610fe5565b6040518082815260200191505060405180910390f35b341561026157600080fd5b610269610feb565b6040518082815260200191505060405180910390f35b341561028a57600080fd5b6102a260048080351515906020019091905050610ff1565b6040518082815260200191505060405180910390f35b60065481565b6000600a60003373ffffffffffffffffffffffffffffffffffffffff1673ffffffffffffffffffffffffffffffffffffffff1681526020019081526020016000206002015411151561030c57fe5b3373ffffffffffffffffffffffffffffffffffffffff166108fc600a60003373ffffffffffffffffffffffffffffffffffffffff1673ffffffffffffffffffffffffffffffffffffffff168152602001908152602001600020600201549081150290604051600060405180830381858888f19350505050156103d1576000600a60003373ffffffffffffffffffffffffffffffffffffffff1673ffffffffffffffffffffffffffffffffffffffff168152602001908152602001600020600201819055505b565b60045481565b6000600254431015156103eb57600080fd5b600a60003373ffffffffffffffffffffffffffffffffffffffff1673ffffffffffffffffffffffffffffffffffffffff16815260200190815260200160002060030160009054906101000a900460ff1615156105005760018054806001018281610455919061108e565b9160005260206000209001600033909190916101000a81548173ffffffffffffffffffffffffffffffffffffffff021916908373ffffffffffffffffffffffffffffffffffffffff160217905550506001600a60003373ffffffffffffffffffffffffffffffffffffffff1673ffffffffffffffffffffffffffffffffffffffff16815260200190815260200160002060030160006101000a81548160ff0219169083151502179055505b34905081156106af57600354811015151561051a57600080fd5b5b6003548110151561065057600a60003373ffffffffffffffffffffffffffffffffffffffff1673ffffffffffffffffffffffffffffffffffffffff16815260200190815260200160002060000160008154809291906001019190505550600760008154809291906001019190505550600354600960008282540192505081905550600354810390506000600f6007548115156105b357fe5b06141561064b57600554600360008282540192505081905550602d6007541115156105f45766038d7ea4c6800060056000828254019250508190555061064a565b602d60075411156106495766038d7ea4c68000600554111561062c5766038d7ea4c68000600560008282540392505081905550610648565b66038d7ea4c680006005541115156106475760006005819055505b5b5b5b5b61051b565b60008111156106aa5780600a60003373ffffffffffffffffffffffffffffffffffffffff1673ffffffffffffffffffffffffffffffffffffffff168152602001908152602001600020600201600082825401925050819055505b610893565b60045481101515156106c057600080fd5b5b600454811015156107f657600a60003373ffffffffffffffffffffffffffffffffffffffff1673ffffffffffffffffffffffffffffffffffffffff16815260200190815260200160002060010160008154809291906001019190505550600860008154809291906001019190505550600454600960008282540192505081905550600454810390506000600f60085481151561075957fe5b0614156107f157600654600460008282540192505081905550602d60085411151561079a5766038d7ea4c680006006600082825401925050819055506107f0565b602d60085411156107ef5766038d7ea4c6800060065411156107d25766038d7ea4c680006006600082825403925050819055506107ee565b66038d7ea4c680006006541115156107ed5760006006819055505b5b5b5b5b6106c1565b600081111561089257600015153373ffffffffffffffffffffffffffffffffffffffff166108fc839081150290604051600060405180830381858888f19350505050151514156108915780600a60003373ffffffffffffffffffffffffffffffffffffffff1673ffffffffffffffffffffffffffffffffffffffff168152602001908152602001600020600201600082825401925050819055505b5b5b5050565b600043905090565b60095481565b60008060008060009054906101000a900473ffffffffffffffffffffffffffffffffffffffff1673ffffffffffffffffffffffffffffffffffffffff163373ffffffffffffffffffffffffffffffffffffffff1614151561090557600080fd5b600254431015151561091657600080fd5b600360095402925060148381151561092a57fe5b049250600015156000809054906101000a900473ffffffffffffffffffffffffffffffffffffffff1673ffffffffffffffffffffffffffffffffffffffff166108fc859081150290604051600060405180830381858888f19350505050151514156109f85782600a60008060009054906101000a900473ffffffffffffffffffffffffffffffffffffffff1673ffffffffffffffffffffffffffffffffffffffff1673ffffffffffffffffffffffffffffffffffffffff168152602001908152602001600020600201819055505b6011600954029250601483811515610a0c57fe5b0492506008546007541115610cce5760075483811515610a2857fe5b049250600091505b600180549050821015610cc9576000600a6000600185815481101515610a5257fe5b906000526020600020900160009054906101000a900473ffffffffffffffffffffffffffffffffffffffff1673ffffffffffffffffffffffffffffffffffffffff1673ffffffffffffffffffffffffffffffffffffffff168152602001908152602001600020600001541115610cbc5760001515600183815481101515610ad557fe5b906000526020600020900160009054906101000a900473ffffffffffffffffffffffffffffffffffffffff1673ffffffffffffffffffffffffffffffffffffffff166108fc85600a6000600188815481101515610b2e57fe5b906000526020600020900160009054906101000a900473ffffffffffffffffffffffffffffffffffffffff1673ffffffffffffffffffffffffffffffffffffffff1673ffffffffffffffffffffffffffffffffffffffff16815260200190815260200160002060000154029081150290604051600060405180830381858888f1935050505015151415610cbb5782600a6000600185815481101515610bcf57fe5b906000526020600020900160009054906101000a900473ffffffffffffffffffffffffffffffffffffffff1673ffffffffffffffffffffffffffffffffffffffff1673ffffffffffffffffffffffffffffffffffffffff1681526020019081526020016000206000015402600a6000600185815481101515610c4d57fe5b906000526020600020900160009054906101000a900473ffffffffffffffffffffffffffffffffffffffff1673ffffffffffffffffffffffffffffffffffffffff1673ffffffffffffffffffffffffffffffffffffffff168152602001908152602001600020600201819055505b5b8180600101925050610a30565b610f8a565b6007546008541115610f895760085483811515610ce757fe5b049250600090505b600180549050811015610f88576000600a6000600184815481101515610d1157fe5b906000526020600020900160009054906101000a900473ffffffffffffffffffffffffffffffffffffffff1673ffffffffffffffffffffffffffffffffffffffff1673ffffffffffffffffffffffffffffffffffffffff168152602001908152602001600020600101541115610f7b5760001515600182815481101515610d9457fe5b906000526020600020900160009054906101000a900473ffffffffffffffffffffffffffffffffffffffff1673ffffffffffffffffffffffffffffffffffffffff166108fc85600a6000600187815481101515610ded57fe5b906000526020600020900160009054906101000a900473ffffffffffffffffffffffffffffffffffffffff1673ffffffffffffffffffffffffffffffffffffffff1673ffffffffffffffffffffffffffffffffffffffff16815260200190815260200160002060010154029081150290604051600060405180830381858888f1935050505015151415610f7a5782600a6000600184815481101515610e8e57fe5b906000526020600020900160009054906101000a900473ffffffffffffffffffffffffffffffffffffffff1673ffffffffffffffffffffffffffffffffffffffff1673ffffffffffffffffffffffffffffffffffffffff1681526020019081526020016000206001015402600a6000600184815481101515610f0c57fe5b906000526020600020900160009054906101000a900473ffffffffffffffffffffffffffffffffffffffff1673ffffffffffffffffffffffffffffffffffffffff1673ffffffffffffffffffffffffffffffffffffffff168152602001908152602001600020600201819055505b5b8080600101915050610cef565b5b5b505050565b60055481565b60085481565b6000600a60003373ffffffffffffffffffffffffffffffffffffffff1673ffffffffffffffffffffffffffffffffffffffff16815260200190815260200160002060020154905090565b60035481565b60075481565b6000811561104357600a60003373ffffffffffffffffffffffffffffffffffffffff1673ffffffffffffffffffffffffffffffffffffffff168152602001908152602001600020600001549050611089565b600a60003373ffffffffffffffffffffffffffffffffffffffff1673ffffffffffffffffffffffffffffffffffffffff1681526020019081526020016000206001015490505b919050565b8154818355818115116110b5578183600052602060002091820191016110b491906110ba565b5b505050565b6110dc91905b808211156110d85760008160009055506001016110c0565b5090565b905600a165627a7a723058201e338cb8e9151dee736d91b02ada3a0162a306527dc3a73cbc52794f91fcd57f0029",
  "source": "pragma solidity ^0.4.11;\r\n\r\ncontract Ethervote {\r\n    \r\n    address owner;\r\n    \r\n    address[] playerAddresses;\r\n    \r\n    uint expiryBlock;\r\n    \r\n    uint public leftSharePrice = 10 finney;\r\n    uint public rightSharePrice = 10 finney;\r\n    \r\n    uint public leftSharePriceRateOfIncrease = 1 finney;\r\n    uint public rightSharePriceRateOfIncrease = 1 finney;\r\n    \r\n    uint public leftVotes = 0;\r\n    uint public rightVotes = 0;\r\n    \r\n    uint public thePot = 0 wei;\r\n    \r\n    struct Player {\r\n        uint leftShares;\r\n        uint rightShares;\r\n        uint excessEther;\r\n        bool hasBetBefore;\r\n    }\r\n    \r\n    mapping(address => Player) players;\r\n    \r\n    modifier isOwner {\r\n       if (msg.sender != owner) revert();\r\n        _;\r\n    }\r\n    \r\n    \r\n    \r\n    function Ethervote() public {\r\n        expiryBlock = block.number + 150;\r\n        owner = msg.sender;\r\n    }\r\n    \r\n    function bet(bool bettingLeft) public payable {\r\n        \r\n        require(block.number < expiryBlock);\r\n        \r\n        if(!players[msg.sender].hasBetBefore){\r\n            playerAddresses.push(msg.sender);\r\n            players[msg.sender].hasBetBefore = true;\r\n        }\r\n            \r\n            uint amountSent = msg.value;\r\n            \r\n            if(bettingLeft){\r\n                require(amountSent >= leftSharePrice);\r\n                \r\n                while(amountSent >= leftSharePrice){\r\n                    players[msg.sender].leftShares++;\r\n                    leftVotes++;\r\n                    thePot += leftSharePrice;\r\n                    amountSent -= leftSharePrice;\r\n                    \r\n                    if((leftVotes % 15) == 0){//if the number of left votes is a multiple of 15\r\n                        leftSharePrice += leftSharePriceRateOfIncrease;\r\n                        if(leftVotes <= 45){//increase the rate at first, then decrease it to zero.\r\n                            leftSharePriceRateOfIncrease += 1 finney;\r\n                        }else if(leftVotes > 45){\r\n                            if(leftSharePriceRateOfIncrease > 1 finney){\r\n                                leftSharePriceRateOfIncrease -= 1 finney;\r\n                            }else if(leftSharePriceRateOfIncrease <= 1 finney){\r\n                                leftSharePriceRateOfIncrease = 0 finney;\r\n                            }\r\n                        }\r\n                    }\r\n                    \r\n                }\r\n                if(amountSent > 0){\r\n                    players[msg.sender].excessEther += amountSent;\r\n                }\r\n                \r\n            }\r\n            else{//betting for the right option\r\n                require(amountSent >= rightSharePrice);\r\n                \r\n                while(amountSent >= rightSharePrice){\r\n                    players[msg.sender].rightShares++;\r\n                    rightVotes++;\r\n                    thePot += rightSharePrice;\r\n                    amountSent -= rightSharePrice;\r\n                    \r\n                    if((rightVotes % 15) == 0){//if the number of right votes is a multiple of 15\r\n                        rightSharePrice += rightSharePriceRateOfIncrease;\r\n                        if(rightVotes <= 45){//increase the rate at first, then decrease it to zero.\r\n                            rightSharePriceRateOfIncrease += 1 finney;\r\n                        }else if(rightVotes > 45){\r\n                            if(rightSharePriceRateOfIncrease > 1 finney){\r\n                                rightSharePriceRateOfIncrease -= 1 finney;\r\n                            }else if(rightSharePriceRateOfIncrease <= 1 finney){\r\n                                rightSharePriceRateOfIncrease = 0 finney;\r\n                            }\r\n                        }\r\n                    }\r\n                    \r\n                }\r\n                if(amountSent > 0){\r\n                    if(msg.sender.send(amountSent) == false)players[msg.sender].excessEther += amountSent;\r\n                }\r\n            }\r\n    }\r\n    \r\n    \r\n    function settleBet() public isOwner {\r\n        require(block.number >= expiryBlock);\r\n        \r\n        uint winReward = thePot * 3;\r\n        winReward = winReward / 20;\r\n        if(owner.send(winReward) == false) players[owner].excessEther = winReward;\r\n        winReward = thePot * 17;\r\n        winReward = winReward / 20;\r\n        \r\n        if(leftVotes > rightVotes){\r\n            winReward = winReward / leftVotes;\r\n            for(uint i=0;i<playerAddresses.length;i++){\r\n                if(players[playerAddresses[i]].leftShares > 0){\r\n                    if(playerAddresses[i].send(players[playerAddresses[i]].leftShares * winReward) == false){\r\n                        //if the send fails\r\n                        players[playerAddresses[i]].excessEther = players[playerAddresses[i]].leftShares * winReward;\r\n                    }\r\n                }\r\n            }\r\n        }else if(rightVotes > leftVotes){\r\n            winReward = winReward / rightVotes;\r\n            for(uint u=0;u<playerAddresses.length;u++){\r\n                if(players[playerAddresses[u]].rightShares > 0){\r\n                    if(playerAddresses[u].send(players[playerAddresses[u]].rightShares * winReward) == false){\r\n                        //if the send fails\r\n                        players[playerAddresses[u]].excessEther = players[playerAddresses[u]].rightShares * winReward;\r\n                    }\r\n                }\r\n            }\r\n        }//make a tie breaker\r\n    }\r\n    \r\n    \r\n    function retrieveExcessEther() public {\r\n        assert(players[msg.sender].excessEther > 0);\r\n        if(msg.sender.send(players[msg.sender].excessEther)){\r\n            players[msg.sender].excessEther = 0;\r\n        }\r\n    }\r\n    \r\n    function viewMyExcessEther() public view returns(uint){\r\n        return players[msg.sender].excessEther;\r\n    }\r\n    \r\n    function viewBlockNumber() public view returns(uint){\r\n        return block.number;\r\n    }\r\n    \r\n    function viewMyShares(bool left) public view returns(uint){\r\n        if(left)return players[msg.sender].leftShares;\r\n        return players[msg.sender].rightShares;\r\n    }\r\n}",
  "sourcePath": "C:\\wamp64\\www\\Ethervote\\contracts\\Ethervote.sol",
  "compiler": {
    "name": "solc",
    "version": "0.4.18+commit.9cf6e910.Emscripten.clang"
  },
  "schemaVersion": "1.0.1",
  "updatedAt": "2018-03-04T18:44:39.474Z"
}