{
  "contractName": "Ethervote",
  "abi": [
    {
      "constant": true,
      "inputs": [],
      "name": "rightSharePriceRateOfIncrease",
      "outputs": [
        {
          "name": "",
          "type": "uint256"
        }
      ],
      "payable": false,
      "stateMutability": "view",
      "type": "function"
    },
    {
      "constant": false,
      "inputs": [],
      "name": "retrieveExcessEther",
      "outputs": [],
      "payable": false,
      "stateMutability": "nonpayable",
      "type": "function"
    },
    {
      "constant": true,
      "inputs": [],
      "name": "rightSharePrice",
      "outputs": [
        {
          "name": "",
          "type": "uint256"
        }
      ],
      "payable": false,
      "stateMutability": "view",
      "type": "function"
    },
    {
      "constant": false,
      "inputs": [
        {
          "name": "bettingLeft",
          "type": "bool"
        }
      ],
      "name": "bet",
      "outputs": [],
      "payable": true,
      "stateMutability": "payable",
      "type": "function"
    },
    {
      "constant": true,
      "inputs": [],
      "name": "viewBlockNumber",
      "outputs": [
        {
          "name": "",
          "type": "uint256"
        }
      ],
      "payable": false,
      "stateMutability": "view",
      "type": "function"
    },
    {
      "constant": true,
      "inputs": [],
      "name": "thePot",
      "outputs": [
        {
          "name": "",
          "type": "uint256"
        }
      ],
      "payable": false,
      "stateMutability": "view",
      "type": "function"
    },
    {
      "constant": false,
      "inputs": [],
      "name": "settleBet",
      "outputs": [],
      "payable": false,
      "stateMutability": "nonpayable",
      "type": "function"
    },
    {
      "constant": true,
      "inputs": [],
      "name": "leftSharePriceRateOfIncrease",
      "outputs": [
        {
          "name": "",
          "type": "uint256"
        }
      ],
      "payable": false,
      "stateMutability": "view",
      "type": "function"
    },
    {
      "constant": true,
      "inputs": [],
      "name": "rightVotes",
      "outputs": [
        {
          "name": "",
          "type": "uint256"
        }
      ],
      "payable": false,
      "stateMutability": "view",
      "type": "function"
    },
    {
      "constant": true,
      "inputs": [],
      "name": "expiryBlock",
      "outputs": [
        {
          "name": "",
          "type": "uint256"
        }
      ],
      "payable": false,
      "stateMutability": "view",
      "type": "function"
    },
    {
      "constant": true,
      "inputs": [],
      "name": "viewMyExcessEther",
      "outputs": [
        {
          "name": "",
          "type": "uint256"
        }
      ],
      "payable": false,
      "stateMutability": "view",
      "type": "function"
    },
    {
      "constant": true,
      "inputs": [],
      "name": "leftSharePrice",
      "outputs": [
        {
          "name": "",
          "type": "uint256"
        }
      ],
      "payable": false,
      "stateMutability": "view",
      "type": "function"
    },
    {
      "constant": true,
      "inputs": [],
      "name": "leftVotes",
      "outputs": [
        {
          "name": "",
          "type": "uint256"
        }
      ],
      "payable": false,
      "stateMutability": "view",
      "type": "function"
    },
    {
      "constant": true,
      "inputs": [
        {
          "name": "left",
          "type": "bool"
        }
      ],
      "name": "viewMyShares",
      "outputs": [
        {
          "name": "",
          "type": "uint256"
        }
      ],
      "payable": false,
      "stateMutability": "view",
      "type": "function"
    },
    {
      "inputs": [],
      "payable": false,
      "stateMutability": "nonpayable",
      "type": "constructor"
    }
  ],
  "bytecode": "0x6060604052662386f26fc10000600355662386f26fc1000060045566038d7ea4c6800060055566038d7ea4c68000600655600060075560006008556000600955341561004a57600080fd5b60964301600281905550336000806101000a81548173ffffffffffffffffffffffffffffffffffffffff021916908373ffffffffffffffffffffffffffffffffffffffff16021790555061166e806100a36000396000f3006060604052600436106100d0576000357c0100000000000000000000000000000000000000000000000000000000900463ffffffff1680631290a2b4146100d557806344c20e6f146100fe5780634dd1232914610113578063523afb0d1461013c5780636901ae581461015657806380b202081461017f5780638e4bf820146101a8578063ba95d63a146101bd578063baa24fce146101e6578063bf6242731461020f578063bffc1fef14610238578063c5ac8a4d14610261578063cb1faac11461028a578063e16c8d4b146102b3575b600080fd5b34156100e057600080fd5b6100e86102ec565b6040518082815260200191505060405180910390f35b341561010957600080fd5b6101116102f2565b005b341561011e57600080fd5b610126610407565b6040518082815260200191505060405180910390f35b6101546004808035151590602001909190505061040d565b005b341561016157600080fd5b6101696108cb565b6040518082815260200191505060405180910390f35b341561018a57600080fd5b6101926108d3565b6040518082815260200191505060405180910390f35b34156101b357600080fd5b6101bb6108d9565b005b34156101c857600080fd5b6101d06114ec565b6040518082815260200191505060405180910390f35b34156101f157600080fd5b6101f96114f2565b6040518082815260200191505060405180910390f35b341561021a57600080fd5b6102226114f8565b6040518082815260200191505060405180910390f35b341561024357600080fd5b61024b6114fe565b6040518082815260200191505060405180910390f35b341561026c57600080fd5b610274611548565b6040518082815260200191505060405180910390f35b341561029557600080fd5b61029d61154e565b6040518082815260200191505060405180910390f35b34156102be57600080fd5b6102d660048080351515906020019091905050611554565b6040518082815260200191505060405180910390f35b60065481565b6000600a60003373ffffffffffffffffffffffffffffffffffffffff1673ffffffffffffffffffffffffffffffffffffffff1681526020019081526020016000206002015411151561034057fe5b3373ffffffffffffffffffffffffffffffffffffffff166108fc600a60003373ffffffffffffffffffffffffffffffffffffffff1673ffffffffffffffffffffffffffffffffffffffff168152602001908152602001600020600201549081150290604051600060405180830381858888f1935050505015610405576000600a60003373ffffffffffffffffffffffffffffffffffffffff1673ffffffffffffffffffffffffffffffffffffffff168152602001908152602001600020600201819055505b565b60045481565b60006002544310151561041f57600080fd5b600a60003373ffffffffffffffffffffffffffffffffffffffff1673ffffffffffffffffffffffffffffffffffffffff16815260200190815260200160002060030160009054906101000a900460ff161515610534576001805480600101828161048991906115f1565b9160005260206000209001600033909190916101000a81548173ffffffffffffffffffffffffffffffffffffffff021916908373ffffffffffffffffffffffffffffffffffffffff160217905550506001600a60003373ffffffffffffffffffffffffffffffffffffffff1673ffffffffffffffffffffffffffffffffffffffff16815260200190815260200160002060030160006101000a81548160ff0219169083151502179055505b34905081156106e357600354811015151561054e57600080fd5b5b6003548110151561068457600a60003373ffffffffffffffffffffffffffffffffffffffff1673ffffffffffffffffffffffffffffffffffffffff16815260200190815260200160002060000160008154809291906001019190505550600760008154809291906001019190505550600354600960008282540192505081905550600354810390506000600f6007548115156105e757fe5b06141561067f57600554600360008282540192505081905550602d6007541115156106285766038d7ea4c6800060056000828254019250508190555061067e565b602d600754111561067d5766038d7ea4c6800060055411156106605766038d7ea4c6800060056000828254039250508190555061067c565b66038d7ea4c6800060055411151561067b5760006005819055505b5b5b5b5b61054f565b60008111156106de5780600a60003373ffffffffffffffffffffffffffffffffffffffff1673ffffffffffffffffffffffffffffffffffffffff168152602001908152602001600020600201600082825401925050819055505b6108c7565b60045481101515156106f457600080fd5b5b6004548110151561082a57600a60003373ffffffffffffffffffffffffffffffffffffffff1673ffffffffffffffffffffffffffffffffffffffff16815260200190815260200160002060010160008154809291906001019190505550600860008154809291906001019190505550600454600960008282540192505081905550600454810390506000600f60085481151561078d57fe5b06141561082557600654600460008282540192505081905550602d6008541115156107ce5766038d7ea4c68000600660008282540192505081905550610824565b602d60085411156108235766038d7ea4c6800060065411156108065766038d7ea4c68000600660008282540392505081905550610822565b66038d7ea4c680006006541115156108215760006006819055505b5b5b5b5b6106f5565b60008111156108c657600015153373ffffffffffffffffffffffffffffffffffffffff166108fc839081150290604051600060405180830381858888f19350505050151514156108c55780600a60003373ffffffffffffffffffffffffffffffffffffffff1673ffffffffffffffffffffffffffffffffffffffff168152602001908152602001600020600201600082825401925050819055505b5b5b5050565b600043905090565b60095481565b600080600080600080600060025443101515156108f557600080fd5b600360095402965060148781151561090957fe5b049650600015156000809054906101000a900473ffffffffffffffffffffffffffffffffffffffff1673ffffffffffffffffffffffffffffffffffffffff166108fc899081150290604051600060405180830381858888f19350505050151514156109d75786600a60008060009054906101000a900473ffffffffffffffffffffffffffffffffffffffff1673ffffffffffffffffffffffffffffffffffffffff1673ffffffffffffffffffffffffffffffffffffffff168152602001908152602001600020600201819055505b60116009540296506014878115156109eb57fe5b0496506008546007541115610cad5760075487811515610a0757fe5b049650600095505b600180549050861015610ca8576000600a6000600189815481101515610a3157fe5b906000526020600020900160009054906101000a900473ffffffffffffffffffffffffffffffffffffffff1673ffffffffffffffffffffffffffffffffffffffff1673ffffffffffffffffffffffffffffffffffffffff168152602001908152602001600020600001541115610c9b5760001515600187815481101515610ab457fe5b906000526020600020900160009054906101000a900473ffffffffffffffffffffffffffffffffffffffff1673ffffffffffffffffffffffffffffffffffffffff166108fc89600a600060018c815481101515610b0d57fe5b906000526020600020900160009054906101000a900473ffffffffffffffffffffffffffffffffffffffff1673ffffffffffffffffffffffffffffffffffffffff1673ffffffffffffffffffffffffffffffffffffffff16815260200190815260200160002060000154029081150290604051600060405180830381858888f1935050505015151415610c9a5786600a6000600189815481101515610bae57fe5b906000526020600020900160009054906101000a900473ffffffffffffffffffffffffffffffffffffffff1673ffffffffffffffffffffffffffffffffffffffff1673ffffffffffffffffffffffffffffffffffffffff1681526020019081526020016000206000015402600a6000600189815481101515610c2c57fe5b906000526020600020900160009054906101000a900473ffffffffffffffffffffffffffffffffffffffff1673ffffffffffffffffffffffffffffffffffffffff1673ffffffffffffffffffffffffffffffffffffffff168152602001908152602001600020600201819055505b5b8580600101965050610a0f565b6114e3565b6007546008541115610f6c5760085487811515610cc657fe5b049650600094505b600180549050851015610f67576000600a6000600188815481101515610cf057fe5b906000526020600020900160009054906101000a900473ffffffffffffffffffffffffffffffffffffffff1673ffffffffffffffffffffffffffffffffffffffff1673ffffffffffffffffffffffffffffffffffffffff168152602001908152602001600020600101541115610f5a5760001515600186815481101515610d7357fe5b906000526020600020900160009054906101000a900473ffffffffffffffffffffffffffffffffffffffff1673ffffffffffffffffffffffffffffffffffffffff166108fc89600a600060018b815481101515610dcc57fe5b906000526020600020900160009054906101000a900473ffffffffffffffffffffffffffffffffffffffff1673ffffffffffffffffffffffffffffffffffffffff1673ffffffffffffffffffffffffffffffffffffffff16815260200190815260200160002060010154029081150290604051600060405180830381858888f1935050505015151415610f595786600a6000600188815481101515610e6d57fe5b906000526020600020900160009054906101000a900473ffffffffffffffffffffffffffffffffffffffff1673ffffffffffffffffffffffffffffffffffffffff1673ffffffffffffffffffffffffffffffffffffffff1681526020019081526020016000206001015402600a6000600188815481101515610eeb57fe5b906000526020600020900160009054906101000a900473ffffffffffffffffffffffffffffffffffffffff1673ffffffffffffffffffffffffffffffffffffffff1673ffffffffffffffffffffffffffffffffffffffff168152602001908152602001600020600201819055505b5b8480600101955050610cce565b6114e2565b60075460085414156114e157600260085488811515610f8757fe5b04811515610f9157fe5b049350600092505b600180549050831015611232576000600a6000600186815481101515610fbb57fe5b906000526020600020900160009054906101000a900473ffffffffffffffffffffffffffffffffffffffff1673ffffffffffffffffffffffffffffffffffffffff1673ffffffffffffffffffffffffffffffffffffffff168152602001908152602001600020600101541115611225576000151560018481548110151561103e57fe5b906000526020600020900160009054906101000a900473ffffffffffffffffffffffffffffffffffffffff1673ffffffffffffffffffffffffffffffffffffffff166108fc86600a600060018981548110151561109757fe5b906000526020600020900160009054906101000a900473ffffffffffffffffffffffffffffffffffffffff1673ffffffffffffffffffffffffffffffffffffffff1673ffffffffffffffffffffffffffffffffffffffff16815260200190815260200160002060010154029081150290604051600060405180830381858888f19350505050151514156112245783600a600060018681548110151561113857fe5b906000526020600020900160009054906101000a900473ffffffffffffffffffffffffffffffffffffffff1673ffffffffffffffffffffffffffffffffffffffff1673ffffffffffffffffffffffffffffffffffffffff1681526020019081526020016000206001015402600a60006001868154811015156111b657fe5b906000526020600020900160009054906101000a900473ffffffffffffffffffffffffffffffffffffffff1673ffffffffffffffffffffffffffffffffffffffff1673ffffffffffffffffffffffffffffffffffffffff168152602001908152602001600020600201819055505b5b8280600101935050610f99565b6007548781151561123f57fe5b049150600090505b6001805490508110156114e0576000600a600060018481548110151561126957fe5b906000526020600020900160009054906101000a900473ffffffffffffffffffffffffffffffffffffffff1673ffffffffffffffffffffffffffffffffffffffff1673ffffffffffffffffffffffffffffffffffffffff1681526020019081526020016000206000015411156114d357600015156001828154811015156112ec57fe5b906000526020600020900160009054906101000a900473ffffffffffffffffffffffffffffffffffffffff1673ffffffffffffffffffffffffffffffffffffffff166108fc84600a600060018781548110151561134557fe5b906000526020600020900160009054906101000a900473ffffffffffffffffffffffffffffffffffffffff1673ffffffffffffffffffffffffffffffffffffffff1673ffffffffffffffffffffffffffffffffffffffff16815260200190815260200160002060000154029081150290604051600060405180830381858888f19350505050151514156114d25781600a60006001848154811015156113e657fe5b906000526020600020900160009054906101000a900473ffffffffffffffffffffffffffffffffffffffff1673ffffffffffffffffffffffffffffffffffffffff1673ffffffffffffffffffffffffffffffffffffffff1681526020019081526020016000206000015402600a600060018481548110151561146457fe5b906000526020600020900160009054906101000a900473ffffffffffffffffffffffffffffffffffffffff1673ffffffffffffffffffffffffffffffffffffffff1673ffffffffffffffffffffffffffffffffffffffff168152602001908152602001600020600201819055505b5b8080600101915050611247565b5b5b5b50505050505050565b60055481565b60085481565b60025481565b6000600a60003373ffffffffffffffffffffffffffffffffffffffff1673ffffffffffffffffffffffffffffffffffffffff16815260200190815260200160002060020154905090565b60035481565b60075481565b600081156115a657600a60003373ffffffffffffffffffffffffffffffffffffffff1673ffffffffffffffffffffffffffffffffffffffff1681526020019081526020016000206000015490506115ec565b600a60003373ffffffffffffffffffffffffffffffffffffffff1673ffffffffffffffffffffffffffffffffffffffff1681526020019081526020016000206001015490505b919050565b81548183558181151161161857818360005260206000209182019101611617919061161d565b5b505050565b61163f91905b8082111561163b576000816000905550600101611623565b5090565b905600a165627a7a72305820eb42f4c2b97edcbef4fa179f49fdb38bfd5c71c9238988ca3dd097b65a3577c60029",
  "source": "pragma solidity ^0.4.11;\r\n\r\ncontract Ethervote {\r\n    \r\n    address owner;\r\n    \r\n    address[] playerAddresses;\r\n    \r\n    uint public expiryBlock;\r\n    \r\n    uint public leftSharePrice = 10 finney;\r\n    uint public rightSharePrice = 10 finney;\r\n    \r\n    uint public leftSharePriceRateOfIncrease = 1 finney;\r\n    uint public rightSharePriceRateOfIncrease = 1 finney;\r\n    \r\n    uint public leftVotes = 0;\r\n    uint public rightVotes = 0;\r\n    \r\n    uint public thePot = 0 wei;\r\n    \r\n    struct Player {\r\n        uint leftShares;\r\n        uint rightShares;\r\n        uint excessEther;\r\n        bool hasBetBefore;\r\n    }\r\n    \r\n    mapping(address => Player) players;\r\n    \r\n    modifier isOwner {\r\n       if (msg.sender != owner) revert();\r\n        _;\r\n    }\r\n    \r\n    \r\n    \r\n    function Ethervote() public {\r\n        expiryBlock = block.number + 150;\r\n        owner = msg.sender;\r\n    }\r\n    \r\n    function bet(bool bettingLeft) public payable {\r\n        \r\n        require(block.number < expiryBlock);\r\n        \r\n        if(!players[msg.sender].hasBetBefore){\r\n            playerAddresses.push(msg.sender);\r\n            players[msg.sender].hasBetBefore = true;\r\n        }\r\n            \r\n            uint amountSent = msg.value;\r\n            \r\n            if(bettingLeft){\r\n                require(amountSent >= leftSharePrice);\r\n                \r\n                while(amountSent >= leftSharePrice){\r\n                    players[msg.sender].leftShares++;\r\n                    leftVotes++;\r\n                    thePot += leftSharePrice;\r\n                    amountSent -= leftSharePrice;\r\n                    \r\n                    if((leftVotes % 15) == 0){//if the number of left votes is a multiple of 15\r\n                        leftSharePrice += leftSharePriceRateOfIncrease;\r\n                        if(leftVotes <= 45){//increase the rate at first, then decrease it to zero.\r\n                            leftSharePriceRateOfIncrease += 1 finney;\r\n                        }else if(leftVotes > 45){\r\n                            if(leftSharePriceRateOfIncrease > 1 finney){\r\n                                leftSharePriceRateOfIncrease -= 1 finney;\r\n                            }else if(leftSharePriceRateOfIncrease <= 1 finney){\r\n                                leftSharePriceRateOfIncrease = 0 finney;\r\n                            }\r\n                        }\r\n                    }\r\n                    \r\n                }\r\n                if(amountSent > 0){\r\n                    players[msg.sender].excessEther += amountSent;\r\n                }\r\n                \r\n            }\r\n            else{//betting for the right option\r\n                require(amountSent >= rightSharePrice);\r\n                \r\n                while(amountSent >= rightSharePrice){\r\n                    players[msg.sender].rightShares++;\r\n                    rightVotes++;\r\n                    thePot += rightSharePrice;\r\n                    amountSent -= rightSharePrice;\r\n                    \r\n                    if((rightVotes % 15) == 0){//if the number of right votes is a multiple of 15\r\n                        rightSharePrice += rightSharePriceRateOfIncrease;\r\n                        if(rightVotes <= 45){//increase the rate at first, then decrease it to zero.\r\n                            rightSharePriceRateOfIncrease += 1 finney;\r\n                        }else if(rightVotes > 45){\r\n                            if(rightSharePriceRateOfIncrease > 1 finney){\r\n                                rightSharePriceRateOfIncrease -= 1 finney;\r\n                            }else if(rightSharePriceRateOfIncrease <= 1 finney){\r\n                                rightSharePriceRateOfIncrease = 0 finney;\r\n                            }\r\n                        }\r\n                    }\r\n                    \r\n                }\r\n                if(amountSent > 0){\r\n                    if(msg.sender.send(amountSent) == false)players[msg.sender].excessEther += amountSent;\r\n                }\r\n            }\r\n    }\r\n    \r\n    \r\n    function settleBet() public {\r\n        require(block.number >= expiryBlock);\r\n        \r\n        uint winReward = thePot * 3;\r\n        winReward = winReward / 20;\r\n        if(owner.send(winReward) == false) players[owner].excessEther = winReward;\r\n        winReward = thePot * 17;\r\n        winReward = winReward / 20;\r\n        \r\n        if(leftVotes > rightVotes){\r\n            winReward = winReward / leftVotes;\r\n            for(uint i=0;i<playerAddresses.length;i++){\r\n                if(players[playerAddresses[i]].leftShares > 0){\r\n                    if(playerAddresses[i].send(players[playerAddresses[i]].leftShares * winReward) == false){\r\n                        //if the send fails\r\n                        players[playerAddresses[i]].excessEther = players[playerAddresses[i]].leftShares * winReward;\r\n                    }\r\n                }\r\n            }\r\n        }else if(rightVotes > leftVotes){\r\n            winReward = winReward / rightVotes;\r\n            for(uint u=0;u<playerAddresses.length;u++){\r\n                if(players[playerAddresses[u]].rightShares > 0){\r\n                    if(playerAddresses[u].send(players[playerAddresses[u]].rightShares * winReward) == false){\r\n                        //if the send fails\r\n                        players[playerAddresses[u]].excessEther = players[playerAddresses[u]].rightShares * winReward;\r\n                    }\r\n                }\r\n            }\r\n        }else if(rightVotes == leftVotes){//split it in a tie\r\n            uint rightWinReward = (winReward / rightVotes) / 2;\r\n            for(uint q=0;q<playerAddresses.length;q++){\r\n                if(players[playerAddresses[q]].rightShares > 0){\r\n                    if(playerAddresses[q].send(players[playerAddresses[q]].rightShares * rightWinReward) == false){\r\n                        //if the send fails\r\n                        players[playerAddresses[q]].excessEther = players[playerAddresses[q]].rightShares * rightWinReward;\r\n                    }\r\n                }\r\n            }\r\n\r\n            uint leftWinReward = winReward / leftVotes;\r\n            for(uint l=0;l<playerAddresses.length;l++){\r\n                if(players[playerAddresses[l]].leftShares > 0){\r\n                    if(playerAddresses[l].send(players[playerAddresses[l]].leftShares * leftWinReward) == false){\r\n                        //if the send fails\r\n                        players[playerAddresses[l]].excessEther = players[playerAddresses[l]].leftShares * leftWinReward;\r\n                    }\r\n                }\r\n            }\r\n\r\n        }\r\n    }\r\n    \r\n    \r\n    function retrieveExcessEther() public {\r\n        assert(players[msg.sender].excessEther > 0);\r\n        if(msg.sender.send(players[msg.sender].excessEther)){\r\n            players[msg.sender].excessEther = 0;\r\n        }\r\n    }\r\n    \r\n    function viewMyExcessEther() public view returns(uint){\r\n        return players[msg.sender].excessEther;\r\n    }\r\n    \r\n    function viewBlockNumber() public view returns(uint){\r\n        return block.number;\r\n    }\r\n    \r\n    function viewMyShares(bool left) public view returns(uint){\r\n        if(left)return players[msg.sender].leftShares;\r\n        return players[msg.sender].rightShares;\r\n    }\r\n}",
  "sourcePath": "C:\\wamp64\\www\\Ethervote\\contracts\\Ethervote.sol",
  "compiler": {
    "name": "solc",
    "version": "0.4.18+commit.9cf6e910.Emscripten.clang"
  },
  "schemaVersion": "1.0.1",
  "updatedAt": "2018-04-27T22:49:01.911Z"
}